:100000000C941E010C9456010C9456010C9456014C
:100010000C9456010C9456010C9456010C94560104
:100020000C9456010C9456010C94C11B0C94951C15
:100030000C9492160C9456010C9456010C94560193
:100040000C9456010C9456010C9456010C945601D4
:100050000C9456010C9419170C9456010C945601EB
:100060000C9456010C9456010C9456010C945601B4
:100070000C9456010C9456010C9456010C945601A4
:100080000C9456010C9456010C9456010C94560194
:100090000C9456010C9456010C9456010C94560184
:1000A0000C9456010C9456010C94560114001A003D
:1000B000080000000000150017001C0018000000D8
:1000C000000000000C00190005000E03660031005E
:1000D0003400640064007000000018034E006900E2
:1000E000620062006C006500640050006F007400E4
:1000F000730000000403090409023B00020100A090
:10010000FA090400000103010100092111010001A5
:1001100022400007058103080001090401000103D2
:1001200000000009211101000122B6000705820329
:100130002000011201000200000008EDFE00000096
:10014000010102000105010902A10185020901A1C5
:100150000005091901290815002501950875018177
:10016000020501093009311581257F950275088145
:100170000609381581257F950175088106050C0A49
:1001800038021581257F950175088106C0C00501DB
:100190000980A101850319012AB700150126B700BE
:1001A000950175108100C0050C0901A10185041994
:1001B000012AA002150126A002950175108100C038
:1001C00005010906A1018506050719E029E71500C3
:1001D00025019508750181020507190029EF150011
:1001E000250195F07501810205081901290595057C
:1001F00075019102950175039101C005010906A1E0
:1002000001050719E029E715002501950875018109
:10021000029501750881010507190029FF150026BF
:10022000FF00950675088100050819012905950547
:1002300075019102950175039101C00011241FBE43
:10024000CFEFDAE0DEBFCDBF04B603FE18C0809169
:100250007A0290917B02A0917C02B0917D0287305E
:10026000904BA740B04B59F410927A0210927B0247
:1002700010927C0210927D02E0E0F8E3099511E013
:10028000A0E0B1E0E0E1FEE302C005900D92A238EB
:10029000B107D9F722E0A2E8B1E001C01D92AA3768
:1002A000B207E1F70E9468100C94F01E0C94000055
:1002B00081E0089581E008950E945A01089508950B
:1002C0000E945F010895A5E0B0E0E9E6F1E00C943A
:1002D000651E49835A833091850189819A81311144
:1002E00019C0662399F0222389F00E947307182F02
:1002F000682F89819A810E944F0769817A81812FB5
:100300000E94EA0D2596E3E00C94811E0E9461078D
:10031000182FF3CF0E94730769817A81F1CFFC0116
:10032000262F408151816281738184810E94630103
:10033000089581E00895CF93DF93EC0160E00E947F
:100340008F01BE010E946001DF91CF9108950E944C
:10035000290F08950E942D0F089508950E949E056B
:100360000E94AD012FEF84E39CE02150804090403B
:10037000E1F700C0000008950E94AE010E943D1701
:1003800008950E94AE010E94611708950F931F9374
:10039000CF93DF938C0161E00E948F01EC01B801E3
:1003A0000E945C01811106C080E0DF91CF911F9116
:1003B0000F910895B801CE010E94C4148823A1F3BF
:1003C000B801CE010E94F912882371F3B801CE0161
:1003D0000E943614882341F3F8018281882361F05A
:1003E000CB35FDE5DF0701F158F4C115ECE5DE077B
:1003F00091F0CF3DDC4591F0C8010E945801D5CF66
:10040000CD358DE5D80769F090F0C83ADD45A1F704
:100410000E94C101C9CF0E94BC01C6CF0E94390C05
:10042000F7CF0E94730BE8CF0E947D0BE5CF0E94AF
:10043000810BE2CF0E946F160E94370208950E943E
:100440003B020E947416089508950E9424020895A4
:1004500081E008950E94280208950895CF93C82F3F
:100460000E9425028C2F0E942A02CF91089580E0DD
:100470000E942E0208950E9420150E942E020895C7
:100480000E94201590918401981721F08093840197
:100490000E942E020895ABE0B0E0E1E5F2E00C949A
:1004A000661E4F83588769877A878B8761110E9400
:1004B000BE0A1E821D8285E0FE013796DE0111967E
:1004C00001900D928A95E1F78C819D81892B61F4D1
:1004D00049815A816B817C818D819E810E94E709CF
:1004E0002B96E2E00C94821E89819A8189238F3FAA
:1004F00079F3CE0101960E9499018111E9CFF0CFE5
:10050000FC01808191810E94AD070895CF93C82F8F
:100510008823B9F08CEF8C0F813AA8F46C2F80916E
:100520000001909101010E949515882329F08C2FDC
:100530000E947E0A0E94DF0A8C2F0E94760A0E9487
:10054000DF0ACF91089580E28C0F883048F4C7709D
:1005500081E001C0880FCA95EAF70E94A10AEFCF97
:10056000EBE5EC0FE33040F4F0E0EB5BFE4F808115
:1005700090E00E945515E5CFE8E5EC0FE73150F427
:10058000F0E0EE0FFF1FE95EFE4F808191810E9437
:100590006B15D7CFCD3EA8F28C2F0E94EC100E9495
:1005A000BF11CFCF882379F19CEF980F913A28F4AF
:1005B0000E947E0A0E94DF0A089590E2980F983008
:1005C00050F4877091E001C0990F8A95EAF7892F5E
:1005D0000E94A70AEFCF9BE5980F933028F490E094
:1005E00080E00E945515089598E5980F973128F4FA
:1005F00090E080E00E946B1508958D3E20F00E94EF
:1006000046110E94BF1108951F93CF93DF93182FB7
:10061000EB010E948602209739F4812F0E94D202BA
:10062000DF91CF911F9108958FE99FE00197F1F736
:1006300000C000002197EFCF70E060E0893311F433
:1006400060E570E00E9404030895882321F00E9471
:10065000A10A0E94DF0A0895882321F00E94A70AB8
:100660000E94DF0A0895B0E0A0E0E9E3F3E00C9413
:100670005F1E6C01D62FC72FFC011281F580F2940A
:100680009FE0F9220E94970AE82E8823B9F0E12E14
:100690001123A1F08C2F807F803421F080E28D0F18
:1006A0008830D0F08091620282FF16C082E00E9402
:1006B000420B0E94970A91E0E82EE926BC2EB294E4
:1006C0008FE0B822FBE0FB1508F468C0EB2DF0E0EA
:1006D000EE50F14E0C94501EE12CF0CF0C2F0F7009
:1006E000C07F11F00295007F112399F0002359F08B
:1006F00080E28D0F883010F0D11107C0802F0E944A
:10070000A10A0E94DF0A8D2F41C0802F0E94B10AEA
:10071000F8CF8D2F0E94D202002309F43FC080E25F
:100720008D0F883010F0D11104C0802F0E94A70ACD
:1007300003C0802F0E94B70A0E94DF0A2FC00C2F2F
:100740000F70C07FC03211F00295007FDD2381F071
:10075000D13009F463C0112309F46DC0FF2009F4FE
:1007600063C0F601858180FFCECF8F7085835CC02A
:100770008091620282FD33C0112359F0002329F0D9
:10078000802F0E94A10A0E94DF0A80E00E94860258
:1007900005C080E00E94D2020111C7CFEB2DE850C6
:1007A000FF0B349720F40E9420150E942E02EE20A9
:1007B00089F00E94930A80FD0DC0F60112820E940A
:1007C0008D0A0E945706C6010E945E050E948D0A8E
:1007D0000E947906CDB7DEB7E9E00C947B1E1123A9
:1007E00089F0F11006C00E94C10A802B0E942503E7
:1007F000D5CF21E0F212F7CF0E94C10A802B0E94D0
:10080000C80ACCCFF11006C00E94D50A802F0E94E2
:100810002C03C4CF31E0F31609F2F6CF112331F0E7
:1008200085E08F1508F4BACF802FE0CF94E09F15B4
:1008300008F4B4CFEBCFFF2049F3D93349F4FFEFED
:1008400027EE33E0F15020403040E1F700C00000D7
:100850008D2F0E94D202A2CF8C2F86958695837011
:1008600069F0813009F09ACF8D2F9C2F9370111170
:1008700002C090E080E00E946B1590CF8D2F9C2FDE
:100880009370111102C090E080E00E94551586CF50
:100890008D2F112329F00E94EC100E94BF117ECFF2
:1008A0000E944611FACF8C2F837009F041C01111BC
:1008B00075CF4D2F429546954770440F440F0D2F2D
:1008C0000F7010E030E020E0042E04C0000F111F74
:1008D000221F331F0A94D2F760E070E0CB01D4FFEF
:1008E0000FC06FE070E080E090E004C0660F771FFB
:1008F000881F991F4A95D2F76095709580959095BD
:10090000C695C695C370602B712B822B932BC2307A
:1009100049F058F4C13019F00E9402063FCF0E94FE
:10092000EF053CCF0E94150639CF0E94EC0536CF6B
:100930008695112311F08C2F8170882309F42ECF16
:100940004D2F429546954770440F440F0D2F0F7061
:1009500010E030E020E0042E04C0000F111F221F21
:10096000331F0A94D2F760E070E0CB01D4FF0FC0D0
:100970006FE070E080E090E004C0660F771F881F92
:10098000991F4A95D2F76095709580959095C69578
:10099000C695C370602B712B822B932BC23049F00C
:1009A00058F4C13019F00E94D206F8CE0E94BF065A
:1009B000F5CE0E94E506F2CE0E942E06EFCECF7055
:1009C000112329F08C2F0E9457068D2F0FCF8D2FCA
:1009D0000E942C038C2F0E947906E0CED23F51F169
:1009E00060F4D03FB9F0D13F81F0112309F449C040
:1009F000F11089CE8C2F8F7121C0D33F11F1D43FDC
:100A0000A1F78091620282FD26C08C2F8F71112385
:100A100011F314C0112349F084E08F1508F4BECE01
:100A20008C2F8F710E949D06B9CE95E09F1508F41A
:100A3000B5CEF6CF8C2F8F711111CDCF0E945706F6
:100A4000ADCE112329F08C2F8F710E944106A6CEC6
:100A50000E943B06A3CE112349F0CF718C2F0E9438
:100A6000570663E08C2F0E94240B98CE81E00E94F1
:100A7000420BE1E0EF1508F091CE82E00E94420BBC
:100A80008DCEF110DACE8C2F8F71A5CF0F931F93DF
:100A9000CF93DF93EC01688179818A810E94B80746
:100AA0008C010E94F8060E94EB05B801CE010E945D
:100AB0003303DF91CF911F910F910895CF93DF936F
:100AC000EC018B819C81892B29F088819981892374
:100AD0008F3F51F4DF91CF910895CE010E944605DA
:100AE000CE010E949B01F6CFCE010E94C60181116A
:100AF000F4CF0E94970A882369F38A81882351F3EF
:100B00008091620282FFE6CF82E00E94420BE2CF38
:100B100090E080E00E94551590E080E00E946B1507
:100B20000E94BE0A0E94DF0A0E94DB110E94BF11D0
:100B300008950E94860A0E94880508950E94AE0AC0
:100B40000E949905089592959F70963091F058F4FF
:100B5000925F9F70923058F4803F19F030F4883ED5
:100B600030F481E008959A5FF4CF843FD1F380E0C0
:100B70000895883EB0F3813FD1F7F3CFFC01808127
:100B800091810E94AD070E94A3050895A5E0B0E001
:100B9000ECECF5E00C94661E2596E2E00C94821EC7
:100BA000A6E0B0E0E6EDF5E00C94661E2696E2E0E5
:100BB0000C94821E08950E94DA0508950E94DB05B8
:100BC000609394017093950180939601909397019F
:100BD0000E948805089508950E94DE0508950F93E8
:100BE0001F930091940110919501209196013091ED
:100BF0009701602B712B822B932B0E94DE051F9196
:100C00000F9108950F931F930091940110919501F6
:100C100020919601309197016023712382239323C1
:100C20000E94DE051F910F9108950F931F9300916D
:100C300094011091950120919601309197016027C0
:100C40007127822793270E94DE051F910F91089537
:100C50000E94DA0508950E94280608950E942B0636
:100C6000609390017093910180939201909393010E
:100C70000E948805089560E070E0CB010E942E0676
:100C800008950F931F9341E050E060E070E08A0107
:100C90009B0104C0000F111F221F331F8A95D2F73A
:100CA000C901B8010E942E061F910F9108950F935C
:100CB0001F9341E050E060E070E004C0440F551F16
:100CC000661F771F8A95D2F78091900190919101CC
:100CD000A0919201B09193018A019B01082B192BDD
:100CE0002A2B3B2BC901B8010E942E061F910F91A0
:100CF00008950F931F9341E050E060E070E004C05E
:100D0000440F551F661F771F8A95D2F7CB01BA0192
:100D1000609570958095909500919001109191014A
:100D200020919201309193016023712382239323B8
:100D30000E942E061F910F9108950F931F9341E07B
:100D400050E060E070E004C0440F551F661F771F3D
:100D50008A95D2F78091900190919101A091920192
:100D6000B09193018A019B01082719272A273B2765
:100D7000C901B8010E942E061F910F9108950F938B
:100D80001F93009190011091910120919201309157
:100D90009301602B712B822B932B0E942E061F91A7
:100DA0000F9108950F931F9300919001109191015D
:100DB0002091920130919301602371238223932328
:100DC0000E942E061F910F9108950F931F9300917B
:100DD000900110919101209192013091930160272F
:100DE0007127822793270E942E061F910F91089545
:100DF0000895262F277091E001C0990F2A95EAF7F0
:100E000023E0769567952A95E1F725E0269FF00186
:100E1000279FF00D1124E40FF51F50E040E0682FEC
:100E200070E08191DF0111979B01042E02C036957D
:100E300027950A94E2F7217021952827292328274E
:100E40002C934F5F5F4F4530510559F70895A82FF8
:100E5000A77023E0969587952A95E1F725E0289FCE
:100E6000F001299FF00D1124E60FF71F50E040E03C
:100E700080E0219130E00A2E02C0369527950A9431
:100E8000E2F721703327042E01C0220F0A94EAF7FB
:100E9000822B4F5F5F4F4530510559F70895262F3C
:100EA000933070F4853060F4682F70E085E0989F8F
:100EB000600D711D112446E851E0822F0E94F90651
:100EC0000895292F933068F4853058F490E066E84F
:100ED00071E035E0239F800D911D11240E942707AA
:100EE000089580E00895B0E0A0E0E9E7F7E00C9411
:100EF0005F1E8C01C0909001D0909101E090920112
:100F0000F09093018091940190919501A0919601A8
:100F1000B0919701C82AD92AEA2AFB2ACFE1D0E06A
:100F2000BC2ED701C6010C2E04C0B695A795979587
:100F300087950A94D2F780FD09C0219788F7B12CD4
:100F40008B2DCDB7DEB7E9E00C947B1EB8018C2F5A
:100F50000E94050E019789F3F3CFCF93DF93EC0145
:100F60000E947307BE010E94050EDF91CF91089584
:100F70001F93CF93DF93EB0190918501992339F073
:100F8000CB010E94AD07DF91CF911F910895882377
:100F900069F0CB010E947307182F682FCE010E94C1
:100FA0004F07BE01812F0E94050EEDCFCB010E949D
:100FB0006107182FF6CF1F93CF93DF93C09198014D
:100FC00016E0809199018C1304C0DF91CF911F919D
:100FD0000895D0E01C9FF0011D9FF00D1124E656EE
:100FE000FE4F4081518162817381848195810E948D
:100FF000D0052196C770E5CF4091CA015091CB0131
:101000006091CC017091CD018091CE019091CF0182
:101010000E94D00508951F93CF93DF938091CF0155
:10102000807F09F049C08091CC01882309F444C035
:1010300080919801C09199016091CA017091CB0192
:10104000A091CD01B091CE01D62FD72316E0C817BD
:1010500099F190E0109711F0DF3F19F40196877035
:10106000F6CF189F9001199F300D1124F901E65613
:10107000FE4F41814713F2CF40814613EFCF4281AB
:101080004111ECCF438154814A1B5B0B483C510515
:1010900028F78091CF018F7080618093CF01F90193
:1010A000E156FE4F80818F70806180838AEC91E0F1
:1010B0000E945E050E94DB07DF91CF911F9108958A
:1010C000A1E1B0E0E6E6F8E00C945E1E8C0185E05C
:1010D000F801DE011D9601900D928A95E1F7F80165
:1010E000E2808AECC82E81E0D82E6091CD0170910B
:1010F000CE016115710509F44EC19091CA0120918C
:10110000CB01892F82238F3F09F445C14081518152
:10111000A380B480F090CC01F501E61BF70BFF2013
:1011200009F4EAC08091CF01382F307FE83CF10507
:1011300008F0A3C031116DC0FE2C251316C0941306
:1011400014C0E11012C08F7080618093CF010E94A3
:10115000FC07C6010E945E058091CF01F8018583DE
:101160008F2D6196EAE00C947A1EA114B10429F047
:10117000842F85238F3F09F027C180E0F82FF1707D
:10118000DF2E80FF3CC0809198012091990136E0CC
:10119000821315C04D875E878D859E850E94AD07A1
:1011A000292F22952F702230F0F0243018F59F70EF
:1011B000F1F0F8019581907FD1F4D12C1EC090E020
:1011C000389FF001399FF00D1124E656FE4F6181E2
:1011D000651306C06081641303C06281E6120FC00C
:1011E00001968770D5CF9F7011F0882331F3805E10
:1011F000883018F3C8010E945E05FD2CB1CFEE20A7
:1012000009F4AECF8091CF0181608093CF01F12CA2
:10121000A7CF251306C0941304C0F801EE2009F4EB
:1012200087C0C8010E94BE05882319F1EE2009F18C
:101230008091CF01803270F02091CA013091CB01B2
:1012400038872F831986BB86AA868C87CE0107969E
:101250000E945E0586E0F801AAECB1E001900D92D3
:101260008A95E1F70E940B080E94FC07FF24F39483
:1012700077CFC8010E945E05F9CF311113C07A2DD6
:10128000B98AA88A6E2D89890E94C6058AEC91E0E8
:101290000E945E0586E0F60111928A95E9F70E94A8
:1012A000FC07B5CF25130FC094130DC0E1100BC080
:1012B000F8018583C8010E945E0586E0F60111925F
:1012C0008A95E9F74DCFC8010E94BE05882389F2AF
:1012D000EE2079F28091CF01803208F4BBCF2091CB
:1012E000CA013091CB013A8329831B82BD82AC8233
:1012F0008E83CE010196ACCFE83CF10508F03EC0EC
:10130000FE2CEE2009F4B5CF25132AC0941328C073
:101310008091CF0180FD1BC0982F907FC1F0F80114
:101320008583903F31F0982F907F905F8F70892B4D
:101330008583C8010E945E0586E0F801AAECB1E051
:1013400001900D928A95E1F70E94FC0709CF86E093
:10135000F801AAECB1E001900D928A95E1F700CF77
:10136000C8010E94BE05811175CF8091CF018160B7
:101370008093CF01C8010E945E05F2CE7A2DB98A12
:10138000A88A6E2D89890E94C60586E0F601119211
:101390008A95E9F7D9CFEE2009F46BCFC8010E94F6
:1013A000BE05F82E882309F464CF86E0F801AAEC84
:1013B000B1E001900D928A95E1F78AEC91E00E94EC
:1013C00080020E940B08C0CF81E08E25D7CEACE012
:1013D000B0E0EDEEF9E00C94651E4F835887698705
:1013E0007A878B879C87CE0107960E9460088823A6
:1013F00069F08A859B85892B39F04F815885842F28
:1014000085238F3F09F06BC016E05FC086E0FE01C8
:101410003796DE01119601900D928A95E1F78A8543
:101420009B85892B89F38F81988589238F3F61F371
:101430002091990130E0C901019687709927409168
:1014400098014817190671F40E949E05109299019F
:101450001092980186E0EAECF1E0DF011D928A9596
:10146000E9F7D2CF96E0929FD001939FB00D11245F
:10147000A656BE4FFE01319601900D929A95E1F766
:10148000809399010E94DB07BFCF819FC001112487
:1014900086569E4F0E9460088823E9F0E0919801EB
:1014A0001E9FF0011124E656FE4F4081518162815A
:1014B0007381848195810E94D0058091980190E08C
:1014C0000196877099278093980180919801909157
:1014D00099018913DACF2C96E3E00C94811E69857B
:1014E0007A858B859C850E94D0058ECF682F809150
:1014F0000001909101010E9415160895682F8091B6
:101500000001909101010E9423160895809100012D
:10151000909101010E94311608958091F001859506
:101520008595859508958091F00187700895909133
:10153000F001977081E009F480E008958091130232
:10154000089590911302892B80931302089580953A
:10155000909113029823909313020895109213020E
:10156000089590911202892B80931202089580951C
:1015700090911202982390931202089510921202F1
:1015800008958091F101089508950E94C40A089574
:101590009091620292FF08C09091F101981721F09A
:1015A0008093F1010E94C50A08958091F10188237A
:1015B00029F01092F10180E00E94C50A0895CF93AE
:1015C000DF93E0910001F09101018091130280838B
:1015D000E0910001F0910101808190911202892B2C
:1015E00080839091F101992381F0E0910001F091C5
:1015F00001018081892B80838091000190910101FC
:101600000E94811581110E94D50AC0910001D091DC
:10161000010140E250E060ED71E0CE010E94A11EA8
:10162000892B59F080E2FE01A0EDB1E001900D920E
:101630008A95E1F7CE010E942D15DF91CF91089593
:1016400008950E94200B08959091620292FF11C0AC
:1016500098E0899F90011124622B6093F0010E9411
:1016600057068091F0018595859585950E94210BFF
:1016700008950E94570608951092F00180E00E949C
:10168000210B08959091F001809589238093F001BA
:10169000282F277091F4282F082E000C330B921757
:1016A000130659F09091620292FF07C085958595C7
:1016B00085950E9479060E943C0B089590916202E4
:1016C00092FB222720F9281769F080FB92F990936A
:1016D000620280916102909162020E94AF0B82E0EF
:1016E0000E94420B08958091620282FB882780F954
:1016F00091E089270E945E0B089581E00E945E0BB5
:10170000089580E00E945E0B08956FEF7FEF90E0F8
:1017100080E00E94DA1E089590E080E00E94B61EEC
:1017200021E0883E9E4F09F020E0822F089582E05C
:1017300090E00E94AE1E089583E090E00E94AE1EED
:101740000895CF9384E090E00E94AE1EC82F82E2FD
:1017500090E00E94AE1E982F8C2FCF910895CF93CA
:10176000C92F682F84E090E00E94BC1E6C2F82E29B
:1017700090E00E94BC1ECF910895AB01BC018FE0A8
:1017800090E00E94CE1E0895AB01BC0183E190E081
:101790000E94CE1E089560E070E0CB010E94C40B51
:1017A000089560E070E0CB010E94BD0B0E94CB0B5E
:1017B000089568EE7EEF90E080E00E94DA1E60E01F
:1017C00082E090E00E94BC1E60E083E090E00E9416
:1017D000BC1E1092940110929501109296011092E5
:1017E000970160E084E090E00E94BC1E64E082E229
:1017F00090E00E94BC1E60E085E090E00E94BC1E6C
:1018000060E086E090E00E94BC1E6FEF87E090E011
:101810000E94BC1E40E050E0BA0188E090E00E94C7
:10182000CE1E60E08DE090E00E94BC1E40E050E0E3
:10183000BA0188E190E00E94CE1E60E087E190E06E
:101840000E94BC1E40E050E0BA018CE190E00E9492
:10185000CE1E70E060E080E290E00E94DA1E40E080
:1018600050E0BA0188E190E00E94CE1E0E94D10BA8
:1018700008950E94D90B0895682F8EE090E00E9491
:10188000BC1E08950E94FE1660931B0270931C02FA
:1018900080931D0290931E026093170270931802AA
:1018A0008093190290931A020895089508950E9452
:1018B000560C089508950E945A0C089584EE9EE0F7
:1018C0000E9416150E94550C0E94570C089581E045
:1018D00008950E94670C0895089508950E946C0C65
:1018E0000E946D0C08950E94030F0E942D0208951E
:1018F0000E94E9160E94CF0F0E94730C0E945B0C9D
:101900000895AAE0B0E0E7E8FCE00C945D1E0E94B8
:10191000E50FC82E81110E94420C84E1A82E82E0BE
:10192000B82E10E000E0902E802F0E94300FE82E9D
:10193000F501F1905F01F816B9F180911F0281FD68
:101940000E94360F8F2D8E25D12CFF24F394982FD3
:101950009F2129F10E94690C882399F0DE829F82E1
:10196000EF2081E009F480E088870E94F216816010
:10197000782F9A8789874E815F8168858A850E9442
:101980004B02F801EC5EFD4F8081F826F08281E089
:10199000C11001C080E02A96EBE00C94791ED3942C
:1019A000FF0CF5E0DF12D3CF0F5F1F4F033011059F
:1019B00009F0B9CF8FEF89838A831B820E94F216C8
:1019C0008160782F9D838C8349815A816B818D81C1
:1019D0000E944B02DCCF0E94810C0E94FD110E94EC
:1019E00040020895CF93DF930E940A0EEC01811507
:1019F00021E5920708F042C0811530E5930708F011
:101A00009DC0883E910530F5803E910508F092C05A
:101A1000883A910588F4853A910508F084C08130B0
:101A2000910509F487C0009709F484C0049708F071
:101A300081C0D0E0C0E07EC08F3B9105D0F7C85A8E
:101A4000D0E0CC0FDD1FC85BDE4F0990D881C02DE0
:101A5000D46470C08115904250F4C11581E0D8075C
:101A600008F068C0CD3ED10520F3D06563C0C11534
:101A700090E4D907F0F2DF70D06A5CC0811525E5EB
:101A8000920700F5811534E5930708F08BC08115A6
:101A900043E5940708F073C0C11582E5D80708F440
:101AA00069C0CE018370992721E030E002C0220F87
:101AB000331F8A95E2F7C695C69580E2C89FE0017C
:101AC000112454C0C11599E5D907A8F4C11528E51A
:101AD000D20708F06CC0C11536E5D30708F0A9CFCE
:101AE0008C2F0E94A10EC82FD0E0DC2FCC27CC2752
:101AF000DF71D0621FC0C1154AE5D40708F45CC08D
:101B0000CE0190568115904208F093CF8D2F8F71A2
:101B10000E94A10E90E0982F882788279F719C0132
:101B20002C2BE901E6CFC55AD0E0CA58DE4FC88158
:101B3000D0E0D064CE01DF91CF910895E4E0969596
:101B40008795EA95E1F783702C2F269526952370CB
:101B500040E2249F90011124382B8C2F8370C1E028
:101B6000D0E002C0CC0FDD1F8A95E2F7C22BD32B49
:101B7000DC68E0CFDC2FCC27C16FD06ADBCF83706D
:101B8000992721E030E002C0220F331F8A95E2F747
:101B9000C695C69590E2C99FE0011124C22BD32BB4
:101BA000DA68C8CFD82FCC27C46FD06AC3CFDC2F58
:101BB000CC27C06FD06ABECF8C2F8F700E94A10E31
:101BC00034E0D695C7953A95E1F7CF709C2FEC019C
:101BD000D069B0CF972F7330A8F4653098F470E0D7
:101BE00025E0929F600D711D1124FB019FE0899FEC
:101BF000E00DF11D1124EE0FFF1FE455FF4F8591FD
:101C00009491089580E090E008950E94EA0D0E946A
:101C1000F20C089582389105B1F1B0F48133910549
:101C200009F475C048F48932910509F469C08A3213
:101C3000910509F473C008958533910509F459C0DD
:101C40008933910501F10895833E9105A9F138F496
:101C5000803E9105F9F0823E910549F10895863E56
:101C60009105A9F1873E9105C9F1843E910519F5C9
:101C70002091620221FF1FC08091610284FD14C087
:101C800087EE90E00895209161022370A1F080EE2C
:101C900090E008952091610220FD47C030916202DA
:101CA00030FF09C024FF44C090E080E004C02091D0
:101CB000610222FDF7CF08952091610222FD3BC011
:101CC0003091620230FDE3CF24FFF5CFEDCF2091BC
:101CD000610223FFF0CF24FDE7CFD2CF2091610234
:101CE00023FD2CC03091620231FFEECF84EE90E0F4
:101CF00008952091610225FFDECF89E290E00895EA
:101D00002091610225FFD7CF85E390E008952091CF
:101D1000610226FFD0CF8AE290E00895209161020F
:101D200026FFC9CF81E390E0089589E390E008950C
:101D300083EE90E0089582EE90E0089586EE90E0C4
:101D400008959091610292FF06C0282F28712830D3
:101D5000F9F4877F846093FF06C0282F287128310B
:101D6000F1F4877E84612091620220FF06C0382F43
:101D700038713830D9F4877F816021FF06C0282F61
:101D800028712831D1F4877E816194FD877E089582
:101D9000282F24712430F9F68B7F8860DCCF282F20
:101DA0002471243101F78B7E8861DDCF382F3171AA
:101DB000313019F78E7F8860E0CF282F21712131D3
:101DC00021F78E7E8861E1CF80E008950E94850B27
:101DD00008950E94E50F2FEF86E791E021508040A3
:101DE0009040E1F700C000000E94E50F80E00E94F3
:101DF000300F80FF04C00E94E60E0E943D17089538
:101E00000E94E90E08950E948C0B811102C00E946D
:101E1000390C0E94970B80931F020E94A10B909394
:101E20006202809361020E94000F0E949C0B682F47
:101E300070E090E080E00E94EC056091900170916C
:101E4000910180919201909193010E942B06089537
:101E500008950E94280F089508950E942C0F089558
:101E6000E82FF0E0EA59FD4F80810895089580EA57
:101E70008A95F1F7089500C008950E94370F0895DC
:101E8000F894E82FE295EF70F0E031A1282F2F7041
:101E900081E090E001C0880F2A95EAF7982F90958D
:101EA000932391A392A1892B82A378940895CF9331
:101EB000DF9386EF0E94400F87EF0E94400F81E37F
:101EC0000E94400FC9E7D1E089918F3F11F00E9435
:101ED000400F81E0CE37D807B9F7DF91CF91089551
:101EE000B0E0A0E0E6E7FFE00C94601EEC01D62E27
:101EF000062F10E0C80182589E4F7C01FC018081B2
:101F00008F3F09F445C0F894E82FE295EF70F0E0B8
:101F100091A18F7021E030E001C0220F8A95EAF78D
:101F2000892F822B81A382A12095282322A3789434
:101F30000E943B0FE9E7F1E04EE751E031E0C12CB0
:101F400021912F3F51F1A22FA295AF70B0E0909652
:101F50008C9190E02F7002C0959587952A95E2F7B5
:101F600080FD1BC0832FC82A330F4E175F0741F730
:101F7000F70180818F3F11F00E94400F61E0C11096
:101F800001C060E08D2D0E943D0FC00FD11FC8829F
:101F9000CDB7DEB7E8E00C947C1E80E0E4CF0E9471
:101FA000570F83E0E6E6F2E0DF01982F1D929A9545
:101FB000E9F7E3E6F2E0DF011D928A95E9F783E0B5
:101FC0000E9424100E94A7010895A3E0B0E0EBEE68
:101FD000FFE00C94651E19821A821B8260E0CE011C
:101FE00001960E94700F61E0CE0101960E94700F71
:101FF00062E0CE0101960E94700F43E050E0BE0106
:102000006F5F7F4F83E692E00E94A11E11E0009770
:1020100009F410E0892B49F089819A81AB81809382
:10202000630290936402A0936502212F43E066E669
:1020300072E083E692E00E9425100E94AA01812F9F
:102040002396E3E00C94811E0895FF920F931F9353
:10205000CF93DF93F82E092F162FD72FC42F2223CB
:1020600049F081E0809322020E94F21690932102AF
:1020700080932002809122028823A1F08091200287
:10208000909121020E940A17059760F0EF2DF02F22
:10209000A12FBD2FCE0FDF2FD11DEC17FD0739F477
:1020A00010922202CDB7DEB7E5E00C947F1E81913D
:1020B0008D93F3CF0E9417190E94780C0E94241967
:1020C00008950E9429190E94EB0C0E94431908955B
:1020D0000E948B160E94FD180E945E0C0E945A10EE
:1020E0000E9461100E946E0CFBCF8091290280FF3C
:1020F0000DC06091070170E0660F771F60387105B1
:1021000070F56115710569F1862F089581FF07C08B
:102110006091070184E0689FB0011124EFCF6091C6
:10212000070182FD0AC0809128028823A9F020912E
:10213000060160910701821710F088E0ECCF869FBE
:10214000C001112433E0880F991F3A95E1F7622FFF
:1021500070E00E943C1ED2CF68E070E0D5CF8FE7E0
:10216000089581E008958091290280FF0CC060915C
:10217000030170E075956795759567956115710513
:1021800049F1862F089581FF06C06091030170E038
:1021900075956795F3CF6091030182FD0BC0909117
:1021A00027029923A1F06091020180910301961703
:1021B00038F0682F70E06038710500F38FE70895FC
:1021C000899FC001112470E00E943C1EF4CF61E0A1
:1021D00070E0D7CF81E008958D3E31F40E947510F4
:1021E000819580932D0208958E3E19F40E947510FA
:1021F000F8CF8F3E31F40E947510819580932C02A8
:102200000895803F19F40E947510F8CF893F29F492
:102210000E94B31080932E0208958A3F21F40E94F9
:10222000B3108195F7CF8B3F31F40E94B3108195A5
:1022300080932F0208958C3F19F40E94B310F8CFB9
:102240009FE0980F983070F4815F990B21E030E0A7
:1022500001C0220F8A95EAF780912B02822B80938E
:102260002B0208958D3F31F4809129028160809383
:10227000290208958E3F21F4809129028260F7CFD0
:102280008F3FB9F7809129028460F1CF40912C02F1
:102290008D3E59F480912D0287FF0DC010922D02C2
:1022A00041110BC01092280208C08E3E81F480912B
:1022B0002D0218169CF3442381F080912E029091F8
:1022C0002F02892B09F05AC01092270208958F3EE1
:1022D00049F447FFF0CF10922C0280912D0281111A
:1022E000ECCFE0CF803F19F41416ACF3E4CF90911B
:1022F0002E02893F29F41916F4F610922E02DBCF34
:102300008A3F19F497FFD7CFF8CF90912F028B3FD8
:1023100029F497FFD0CF10922F02CDCF8C3F19F424
:102320001916CCF3C8CF9FE0980F983090F4815FD6
:10233000990B21E030E0B90102C0660F771F8A9542
:10234000E2F7CB01809590912B02892380932B0299
:10235000B2CF8D3F31F4809129028E7F8093290284
:10236000AACF8E3F21F4809129028D7FF7CF8F3F36
:1023700009F0A1CF809129028B7FF0CF08950E94B0
:10238000F2169C0190912C0280912D02982B21F045
:10239000309326022093250290912E0280912F02E5
:1023A000982B21F030932402209323028AE292E0BA
:1023B0000E944715089586E0EAE2F2E0DF011D92EF
:1023C0008A95E9F7109228021092270210922902AA
:1023D0000895FC01828181110EC0838181110BC09F
:1023E0008481811108C091E08581811101C090E054
:1023F000892F8170089581E0FCCFA6E0B0E0E3E092
:10240000F2E10C94651E86E0EAE2F2E0DE0111964C
:1024100001900D928A95E1F710922C0210922D02F4
:1024200010922E0210922F028B819C81892B89F0B1
:1024300080912502909126020E940A17AC0190918A
:1024400028029923C9F1809108018417150608F420
:1024500040C08D819E81892B91F0809123029091C3
:1024600024020E940A17AC0190912702992309F4D3
:1024700071C0809104018417150608F479C0BE016B
:102480006F5F7F4F8AE292E00E944316811105C080
:102490008AE292E00E94E91181110E94BF1186E058
:1024A000FE013196AAE2B2E001900D928A95E1F721
:1024B0002696E3E00C94811E209109018AE0289F72
:1024C000900111242417350720F69F5F909328026E
:1024D00002C09F3FD1F71B81112359F00E94751054
:1024E0009FEF11160CF491E0899F802D11248093A9
:1024F0002C021C81112359F00E9475109FEF1116B8
:102500000CF491E0899F802D112480932D0230914D
:102510002C02332309F49DCF20912D02222309F4AC
:1025200098CF45EB3403C0011124992359F09093BF
:102530002C0245EB240390011124332339F030930E
:102540002D0287CF81E080932C02F3CF81E080932E
:102550002D027FCF209105018AE0289F9001112450
:102560002417350708F08BCF9F5F9093270202C096
:102570009F3FD1F71D81112359F00E94B3109FEFA7
:1025800011160CF491E0899F802D112480932E0266
:102590001E81112359F00E94B3109FEF11160CF405
:1025A00091E0899F802D112480932F0230912E027B
:1025B000332309F464CF20912F02222309F45FCF43
:1025C00045EB3403C0011124992359F090932E0256
:1025D00045EB240390011124332339F030932F026B
:1025E0004ECF81E080932E02F3CF81E080932F02C3
:1025F00046CFCF93DF93EC01FB018281882309F45E
:1026000033C1C430FDE5DF07C0F5CB3F9CE5D907FA
:1026100030F49E0122503C4524313105B0F50E9432
:10262000A10B9093620280936102C1318CE5D807BF
:1026300009F4EEC008F069C0C930ECE5DE0709F422
:10264000D5C0C8F5C5308CE5D80709F4C7C000F57A
:10265000C330ECE5DE0709F4B9C008F0BBC0C230F6
:10266000DC4509F4ADC080916102909162020E9444
:10267000AF0B0E949E0580E008C0C236EDE5DE0784
:1026800071F2C63AFDE5DF0751F2DF91CF9108956F
:10269000809161028062C7309CE5D90709F493C03C
:1026A000809161028061C830DC4508F48CC0809163
:1026B0006102806488C0809161028B7FCD30FCE52F
:1026C000DF0709F480C098F4809161028E7FCB30DF
:1026D0009CE5D90709F477C0809161028C60CC3009
:1026E000DC4508F470C0809161028D7F6CC08091E0
:1026F00061028F7ECF30FCE5DF0709F464C008F487
:102700007BC0809161028F7D5EC0CE3F9CE5D90782
:1027100009F47AC050F5C531FCE5DF0709F486C03D
:1027200098F480916102837FC3319CE5D90709F455
:102730004AC008F471C00E949E0590916102892FE1
:1027400097FB87F980583FC0CC3FFCE5DF0709F4D1
:1027500049C008F055C0809162028160CB3FDC45E2
:1027600009F081CF809362027ECFC230EDE5DE07B3
:1027700009F468C0A8F4C1158DE5D80709F452C062
:10278000809162028360C130DD4560F38091620216
:10279000982F909591708E7F892B90FB81F9E2CFD5
:1027A000C236EDE5DE0709F451C0C63AFDE5DF07A4
:1027B00009F453C0C330DD4509F055CF80E043C074
:1027C000809161028160809361024DCF80916102AE
:1027D0008260F9CF809161028460F5CF80916102BF
:1027E0008860F1CF809162028260BCCF0E949E051A
:1027F000809161028068E7CF80916102877FE3CF9B
:10280000809162028E7FAECF809162028D7FAACFCF
:10281000809161028F7BD7CF0E949E0580916102DB
:102820008F77D1CF809162028C7F9CCF80916102A3
:1028300082FB992790F921E0922790FB82F990FB87
:1028400083F9C1CF81E00E943C0C0DCF90916102D1
:10285000892F8F7E94FF8061B6CF90916102892F7E
:102860008E7F90FF8160AFCF81E00FCFCF93DF935A
:10287000EB0186319C4511F50E949E0A9A819923AD
:1028800099F08A7A91E009F490E0909330028111F6
:1028900009C089E20E94760A0E94DF0A80E0DF9187
:1028A000CF91089585E3F6CF80913002811104C065
:1028B00089E20E947E0AF0CF85E3FBCF81E0EFCF73
:1028C0000F931F93CF93DF93C42FD22FFC018281EC
:1028D0008823C9F0409333020E94F216909332028B
:1028E0008093310280E28C0F883040F4C77081E021
:1028F00001C0880FCA95EAF70E942503DF91CF91A6
:102900001F910F91089510913302141332C08091DA
:102910003102909132020E940A17883C910548F5D5
:10292000C0E2CD0F1D17B9F080E2810F883040F46E
:10293000177081E001C0880F1A95EAF70E942C03F6
:10294000C83048F481E09D2F977001C0880F9A9598
:10295000EAF70E942503802F0E941C03C83070F6FE
:10296000D77081E001C0880FDA95EAF70E942C0346
:10297000C5CF80E28C0F883008F6C77081E001C0B7
:10298000880FCA95EAF7F2CF0F939C01CB01243F41
:102990004CE5340759F1A8F4293DFCE53F0701F166
:1029A0002A3D4CE53407D1F1283D3C4591F406E23F
:1029B00021EE41EE68ED7CE50E94601480E00F910D
:1029C0000895263FFCE53F07E9F0B0F0273F3C457E
:1029D000F9F0FC018281882339F110923302EFCFA4
:1029E00007E225EE45EE69ED7CE5E6CF06E221EE55
:1029F00040EE64EF7CE5E0CF07E225EE44EE65EFC4
:102A00007CE5DACF06E221EE42EE66EF7CE5D4CF3C
:102A100007E225EE46EE67EF7CE5CECF08E221E047
:102A200045EE6AED7CE5C8CF81E0C9CF9093830184
:102A3000809382010895909339028093380208951B
:102A4000E0913802F0913902309729F00190F0813D
:102A5000E02D0995089580E00895E0913802F09105
:102A60003902309799F020911601222359F02091D4
:102A7000610227FF07C0DC012C9111962C9311975E
:102A800026E02C930280F381E02D09950895E091D2
:102A90003802F0913902309739F022E0DC012C93B2
:102AA0000480F581E02D099508952091360230913A
:102AB00037022817390771F0909337028093360256
:102AC000E0913802F0913902309721F00680F781C9
:102AD000E02D099508952091340230913502281790
:102AE000390771F09093350280933402E0913802F7
:102AF000F0913902309721F00084F185E02D09959D
:102B00000895FC01329680911601882321F080916E
:102B100061029EE187FF96E080E0915008F40895FD
:102B200021912223D1F38F5FF8CF662301F1209109
:102B300016012223F1F02091610227FF1AC0462FCF
:102B40004695469546954E3190F4677021E030E009
:102B500002C0220F331F6A95E2F7840F911DFC011A
:102B6000828190E02823392381E0232B69F480E0DF
:102B70000895FC01329608962191261721F0E81756
:102B8000F907D1F7F4CF81E008959C01FC0132965A
:102B90009FEF80E04191461751F09F3F19F441119A
:102BA00001C0982F8F5F8630A9F79F3F09F40895E1
:102BB000290F311D97FD3A95F90162830895FC01B3
:102BC000329608962191261303C0DF0111971C92BB
:102BD000E817F907B9F70895E62FE695E695E69523
:102BE000EE3168F4E80FF92FF11D677021E030E055
:102BF00001C0220F6A95EAF78281822B82830895B1
:102C0000E62FE695E695E695EE3170F4E80FF92F9C
:102C1000F11D677021E030E001C0220F6A95EAF7EC
:102C20002095828128232283089520911601222352
:102C300039F02091610227FF03C00E94EC1508952E
:102C40000E94C515089520911601222339F0209184
:102C5000610227FF03C00E94001608950E94DF153D
:102C60000895FC01329680911601882351F08091DD
:102C7000610287FF06C08EE1DF011D928A95E9F7A8
:102C8000089586E0F9CF46E050E00E94A11E21E0C1
:102C9000892B09F420E0822F089508950E944D1693
:102CA0000895811106C081E080933A020E944E1679
:102CB000089582E0F9CF83E080933A020E944E1695
:102CC00008950E945116089581E080933A020E946F
:102CD0004E1608950E9464160895089508950E945E
:102CE0006E160895089508950E946D160895CF9365
:102CF0000E9472160E94E50F0E947316C0E08C2F8E
:102D00000E94300F811105C0CF5FC330C1F7CF9152
:102D1000089581E0FCCF85B7806885BF85B780685E
:102D200085BF08951F921FB61F9211248F939F9302
:102D3000AF93BF9380913B02811113C080916902D0
:102D400090916A02A0916B02B0916C024196A11D14
:102D5000B11D8093690290936A02A0936B02B093B5
:102D60006C02BF91AF919F918F911F901FBE1F90DA
:102D7000189580917102843031F10E941A021092EC
:102D80003B0288E190E020E40FB6F894A895809388
:102D900060000FBE2093600083B7817F846083BF93
:102DA00083B7816083BF7894889583B78E7F83BF14
:102DB0000FB6F894A89580916000886180936000B8
:102DC000109260000FBE08950E949E050E941F028F
:102DD000089582E084BD93E095BD9AEF97BD8093FE
:102DE0006E0008952FB7F8948091690290916A025D
:102DF000A0916B02B0916C022FBF08952FB7F89489
:102E00006091690270916A0280916B0290916C02EC
:102E10002FBF08959C014FB7F8948091690290915B
:102E20006A02A0916B02B0916C024FBF821B930BA0
:102E3000089578941F921FB61F9211248F939F9329
:102E4000AF93BF938091690290916A02A0916B0247
:102E5000B0916C020196A11DB11D809369029093FF
:102E60006A02A0936B02B0936C02BF91AF919F91E5
:102E70008F911F901FBE1F90189581E08093E000F6
:102E800080E28093D8001092C9008FE19EE4019700
:102E9000F1F700C0000087E090EBDC0180937A023C
:102EA00090937B02A0937C02B0937D0288E19CE02A
:102EB0000FB6F894A895809360000FBE90936000C1
:102EC000FFCF88E19CE00FB6F894A895809360004E
:102ED0000FBE90936000FFCF80915F020895089528
:102EE0009C0182E08093E9009FEF8091E80091507F
:102EF00085FD06C085ED8A95F1F700009111F5CFAB
:102F00008091E80085FF0CC050E040E066E070E092
:102F1000C9010E94B5198091E8008E778093E8007E
:102F20000895CF93DF93EC01809116018823B1F1CE
:102F30008091610287FF32C060E282E08093E90005
:102F40008FEF9091E800815095FD06C095ED9A9520
:102F5000F1F700008111F5CF8091E80085FF1BC0DB
:102F60008091160170E050E040E0811104C050E013
:102F700040E068E070E0CE010E94B5198091E80061
:102F80008E778093E80080E2FE01AFE3B2E001902B
:102F90000D928A95E1F7DF91CF91089568E081E085
:102FA000CDCF80933C0270933E0260933D028091AE
:102FB0007102843001F582E08093E9008FEF9091F7
:102FC000E800815095FD06C095ED9A95F1F7000057
:102FD0008111F5CF8091E80085FF0DC050E040E001
:102FE00063E070E08CE392E00E94B5198091E80004
:102FF0008E778093E8000895BC0184E00E94D11789
:103000000895BC0183E00E94D11708958091700259
:10301000811109C00E94451B0E94A21B8091E20001
:1030200084608093E20008951092700208950E94D7
:103030006416089560916D0281E0611101C080E025
:103040000E945B1608959091710281E0943009F01E
:1030500080E060916D020E946116089542E061EC8B
:1030600081E00E94C11A42E261EC82E00E94C11A32
:103070009091710281E0943009F080E060916D02DE
:103080000E945116089580917302833009F461C043
:1030900030F48130D1F1823009F49EC008958A3035
:1030A00009F48AC08B3009F46FC0893009F050C030
:1030B00080917202813209F04BC08091760290912A
:1030C0007702029708F044C08091E800877F8093E0
:1030D000E8008091E80082FF37C09091F300809172
:1030E000F200029731F48091F100813011F08630C6
:1030F00021F48091F10080935F028091E8008B774A
:103100008093E8000E94F51A23C080917202813AF0
:10311000F9F48091E800877F8093E800809176023F
:1031200090917702892B61F460E28FE392E070E086
:103130000E94041A8091E8008B778093E80008953C
:1031400060E090E080E0F3CF809171028111C1CF07
:10315000089580917202813AD9F780917602909118
:103160007702892BA9F78091E800877F8093E80098
:103170008091E80080FFFCCF809116018093F100E0
:103180008091E8008E77BCCF80917202813201F786
:103190008091760290917702892BD1F68091E80098
:1031A000877F8093E8000E94F51A809174028093D3
:1031B00016010E949E05089580917202813241F6A7
:1031C0008091E800877F8093E8000E94F51A809143
:1031D000750280936002089580917202813A09F02D
:1031E000B7CF8091E800877F8093E8008091E80066
:1031F00080FFFCCF80916002C1CF84B7877F84BFFE
:103200000FB6F894A8958091600088618093600063
:10321000109260000FBE80E890E00FB6F8948093A3
:103220006100909361000FBE0E946A1608950E948B
:10323000451B0E94A21BE2EEF0E080818460808347
:1032400078940E94211E08958AE091E00E941B1547
:10325000089580917102853031F48091710285303A
:1032600019F00E94E41608950E94B91680916F0229
:10327000882399F30E947716882379F30E949F1977
:103280000E949E05EACF08950E9447190895292FAC
:1032900033272330310519F168F42130310509F461
:1032A00044C02230310509F445C090E080E030E0B0
:1032B00020E025C02132310549F122323105A9F73C
:1032C00080E490E02BEF31E061157105C1F086EBF1
:1032D00090E025E431E06130710589F0E6CF99276F
:1032E0008130910581F0009729F00297F1F6EAEC20
:1032F000F0E002C0E4EFF0E0849190E09F01FA0179
:10330000318320830895EAEDF0E0F6CF89E090E084
:103310002AE031E06115710591F389E090E023E244
:1033200031E06130710559F3C0CF82E190E023E3D1
:1033300031E0E5CF8BE390E028EF30E0E0CF80E1B3
:1033400089BD82E189BD09B400FEFDCF8091D8001E
:103350008F7D8093D8008091E00082608093E000B0
:103360008091E00081FDFCCF0895AF92BF92CF9293
:10337000DF92FF920F931F93CF93DF936C01EB01CA
:103380008A010E94141BF82E811123C0011511051A
:1033900039F0F80180819181C81BD90BC80ED91E64
:1033A000B12CA12C2097A9F08091E80085FD22C0C6
:1033B0008091E8008E778093E80001151105A1F057
:1033C000F80180819181A80EB91EB182A08285E0AA
:1033D000F82E8F2DDF91CF911F910F91FF90DF90ED
:1033E000CF90BF90AF9008950E94141B8823D1F214
:1033F000F82EEFCFF60181916F018093F1002197B4
:10340000FFEFAF1ABF0ACECFFC01809178029091F6
:10341000790286179707A0F06115710529F490913C
:10342000E8009E779093E80090E06115710551F4F3
:10343000911108C08091E80082FF34C080E00895B7
:10344000BC01F2CF809171028823C1F18530C1F1B6
:103450008091E80083FD30C08091E80082FDEACFD2
:103460008091E80080FFE1CF8091F3002091F2008D
:10347000382F6115710519F02830310558F091E0A9
:103480002830310509F090E02091E8002E77209354
:10349000E800CBCF81918093F100615071092F5FDB
:1034A0003F4FE7CF80917102882341F0853041F092
:1034B0008091E80083FFBECF81E0089582E0089507
:1034C00083E00895FC01809178029091790286173B
:1034D0009707A0F06115710529F48091E8008E77B7
:1034E0008093E80090E06115710551F4911108C0D6
:1034F0008091E80082FF35C080E00895BC01F2CFE2
:10350000809171028823C9F18530C9F18091E8006A
:1035100083FD31C08091E80082FDEACF8091E80010
:1035200080FFE1CF8091F3002091F200382F6115E8
:10353000710519F02830310558F091E02830310537
:1035400009F090E08091E8008E778093E800CBCF7F
:1035500084918093F1003196615071092F5F3F4F44
:10356000E6CF80917102882341F0853041F080914F
:10357000E80083FFBDCF81E0089582E0089583E0F5
:103580000895982F973028F08F708093E90081E09C
:1035900008959093E900242F762F50E0981731F08A
:1035A0007091EC002091ED005091F00021FD02C0DF
:1035B0009F5FE8CF3091EB003E7F3093EB0030917E
:1035C000ED003D7F3093ED003091EB0031603093A2
:1035D000EB007093EC002093ED005093F0002091ED
:1035E000EE0027FDE5CF80E008958091720287FF0D
:1035F00013C08091E80082FF06C08091E8008B77BD
:103600008093E80004C0809171028111F2CF089587
:10361000809171028823D9F38091E80080FFF8CF70
:103620008091E8008E77ECCF2091E4003091E500A6
:1036300095E6A9012091EC00822F817020FF06C041
:103640008091E80080FF06C080E008952091E800A6
:1036500022FD1AC080917102882389F0853089F09B
:103660008091EB0085FD0FC02091E4003091E500D2
:1036700042175307F9F29150E1F684E0089582E091
:10368000089583E0089581E008950E94B41B0E948C
:10369000BC1BE0EEF0E0808181608083E8EDF0E02B
:1036A00080818F77808319BCA7EDB0E08C918E7FED
:1036B0008C9380818F7E80831092700208950F9387
:1036C0001F93CF93DF930E94B41B0E94BC1BC8EDD5
:1036D000D0E088818F77888388818068888388811B
:1036E0008F7D888319BC1092710210926D02109226
:1036F0006F0210926E0200EE10E0F80180818B7F65
:10370000808388818160888342E060E080E00E945D
:10371000C11AE1EEF0E080818E7F8083E2EEF0E07E
:10372000808181608083808188608083F8018081CE
:103730008E7F8083888180618883DF91CF911F9104
:103740000F910895E8EDF0E080818F7E8083E7EDB2
:10375000F0E080818160808384E082BF81E080939B
:1037600070020E945F1B0895E8EDF0E080818E7F7B
:1037700080831092E20008951092DA001092E10026
:1037800008951F920F920FB60F9211242F933F931B
:103790004F935F936F937F938F939F93AF93BF9359
:1037A000EF93FF938091E10082FF0BC08091E200D4
:1037B00082FF07C08091E1008B7F8093E1000E942F
:1037C000201E8091DA0080FF19C08091D80080FF10
:1037D00015C08091DA008E7F8093DA008091D90045
:1037E00080FF96C080E189BD82E189BD09B400FEF9
:1037F000FDCF81E0809371020E9406188091E10064
:1038000080FF19C08091E20080FF15C08091E20026
:103810008E7F8093E2008091E20080618093E200DD
:103820008091D80080628093D80019BC85E0809395
:1038300071020E941A188091E10084FF2BC08091D0
:10384000E20084FF27C080E189BD82E189BD89B59E
:10385000982F917080FFFBCF8091D8008F7D80934F
:10386000D8008091E1008F7E8093E1008091E2009A
:103870008F7E8093E2008091E20081608093E2007D
:1038800080916D02882309F449C084E0809371021D
:103890000E9423188091E10083FF29C08091E200FB
:1038A00083FF25C08091E100877F8093E10082E063
:1038B0008093710210926D028091E1008E7F80935F
:1038C000E1008091E2008E7F8093E2008091E2002F
:1038D00080618093E20042E060E080E00E94C11AD3
:1038E0008091F00088608093F0000E941718FF918B
:1038F000EF91BF91AF919F918F917F916F915F9168
:103900004F913F912F910F900FBE0F901F901895E0
:1039100019BC109271020E94141870CF8091E300BC
:1039200087FD93E090937102B3CF1F920F920FB671
:103930000F9211242F933F934F935F936F937F9335
:103940008F939F93AF93BF93CF93DF93EF93FF93A7
:10395000D091E900DF708091EC00C82FC17080FD2C
:10396000C0E81092E9008091F000877F8093F0001A
:1039700078940E94D91C1092E9008091F000886030
:103980008093F000CD2BCF70C093E900FF91EF91B1
:10399000DF91CF91BF91AF919F918F917F916F9167
:1039A0005F914F913F912F910F900FBE0F901F90FD
:1039B0001895AAE2B0E0EFEDFCE10C94651E82E7F9
:1039C00092E02091F100FC012193CF01F2E08A37CF
:1039D0009F07B9F70E9443188091E80083FF1EC13A
:1039E00080917202909173029A3008F017C1E92F0A
:1039F000F0E0E250F14E0C94501E803899F082387D
:103A000009F00CC1809176028F70873008F006C1F2
:103A10008093E9008091EB0085FB882780F9109264
:103A2000E90006C080916E0290916F029111826050
:103A30009091E800977F9093E8008093F1001092B6
:103A4000F1008091E8008E77E5C0882309F4D3C0A7
:103A5000823009F0E3C0809174028111D6C0809158
:103A600076028F702FEF280F263008F0D7C0809392
:103A7000E9002091EB0020FFC8C0933031F4809121
:103A8000EB0080628093EB00C0C09091EB009061EE
:103A90009093EB0021E030E001C0220F8A95EAF715
:103AA0002093EA001092EA008091EB008860EACF50
:103AB0008111B4C0109174021F778091E300807867
:103AC000812B8093E3008091E800877F8093E8005A
:103AD0000E94F51A8091E80080FFFCCF8091E300FE
:103AE00080688093E30082E0111183E0809371028B
:103AF00095C08058823008F091C0809174029091F6
:103B000075028C3D23E09207A1F583E08A838AE267
:103B100089834FB7F894DE01139620E03EE051E22E
:103B2000E32FF0E050935700E49120FF03C0E295AB
:103B3000EF703F5FEF708E2F90E0EA30C0F0C796D5
:103B40008D939D932F5F243159F74FBF8091E800EB
:103B5000877F8093E8006AE270E0CE0101960E94C0
:103B6000041A8091E8008B778093E80057C0C096D4
:103B7000E7CF6091760270917702AE014F5F5F4FA1
:103B80000E944419BC01892B09F448C09091E800B7
:103B9000977F9093E80089819A810E94621AE1CF11
:103BA0008038E1F58091E800877F8093E80080917C
:103BB0006D028093F10045CF811130C09091740265
:103BC000923060F58091E800877F8093E8009093C1
:103BD0006D020E94F51A80916D02882311F084E035
:103BE00005C08091E30087FDFACF81E080937102E8
:103BF0000E942E1813C080917402813079F481E004
:103C0000933009F080E080936F021092E900809178
:103C1000E800877F8093E8000E94F51A8091E80011
:103C200083FF0AC08091E800877F8093E80080913D
:103C3000EB0080628093EB00AA96E3E00C94811E77
:103C40000895CF93809171028823A1F0C091E9007B
:103C5000CF709091EC00892F817090FD80E8C82B87
:103C60001092E9008091E80083FD0E94D91CCF707A
:103C7000C093E900CF91089597FB072E16F40094A6
:103C800007D077FD09D00E948D1E07FC05D03EF4B9
:103C9000909581959F4F0895709561957F4F0895F8
:103CA000EE0FFF1F0590F491E02D09942F923F92A3
:103CB0004F925F926F927F928F929F92AF92BF923C
:103CC000CF92DF92EF92FF920F931F93CF93DF93E8
:103CD000CDB7DEB7CA1BDB0B0FB6F894DEBF0FBE45
:103CE000CDBF09942A88398848885F846E847D8492
:103CF0008C849B84AA84B984C884DF80EE80FD8094
:103D00000C811B81AA81B981CE0FD11D0FB6F89409
:103D1000DEBF0FBECDBFED010895AA1BBB1B51E155
:103D200007C0AA1FBB1FA617B70710F0A61BB70B2B
:103D3000881F991F5A95A9F780959095BC01CD01D0
:103D40000895FB01DC0104C08D910190801921F4DC
:103D500041505040C8F7881B990B0895F999FECF40
:103D600092BD81BDF89A992780B50895A8E1B0E089
:103D700042E050E00C94E21E262FF999FECF92BD4E
:103D800081BDF89A019700B4021639F01FBA20BD20
:103D90000FB6F894FA9AF99A0FBE08950396272F52
:103DA0000E94BD1E0E94BC1E252F0E94BD1E242FF6
:103DB0000C94BD1E0196272F0E94BD1E0C94BC1EA4
:103DC000DC01CB01FC01F999FECF06C0F2BDE1BDDB
:103DD000F89A319600B40D9241505040B8F70895CA
:103DE000F894FFCF6E036E039F039F032C044804D7
:103DF000CE03CE035304DF04EE04EE04FD1C251DA8
:103E00000E1E251D0E1E581D791D0E1ED01DDC1DFB
:103E1000F201280850011E0A14016C17911770173F
:103E20000118FC176F1701E200E900EA00B500B6BF
:103E300000B700CD008301CC008A019201940121DA
:103E400002230224022502260227022A02B300B41A
:103E5000006F007000818283E200E900EA00B50093
:103E6000B600B700CD008301CC008A019201940115
:103E70002102230224022502260227022A02B3007D
:103E8000B4006F007000818283F4323534C6F6F7D7
:023E90003100FF
:00000001FF
